{
  "contractName": "Bulletin",
  "abi": [
    {
      "constant": true,
      "inputs": [
        {
          "name": "",
          "type": "uint256"
        }
      ],
      "name": "jobs",
      "outputs": [
        {
          "name": "",
          "type": "address"
        }
      ],
      "payable": false,
      "stateMutability": "view",
      "type": "function"
    },
    {
      "anonymous": false,
      "inputs": [],
      "name": "NewJob",
      "type": "event"
    },
    {
      "anonymous": false,
      "inputs": [],
      "name": "NewCheckList",
      "type": "event"
    },
    {
      "anonymous": false,
      "inputs": [],
      "name": "CheckListGone",
      "type": "event"
    },
    {
      "anonymous": false,
      "inputs": [],
      "name": "CheckListDone",
      "type": "event"
    },
    {
      "anonymous": false,
      "inputs": [],
      "name": "CheckListNotDoneNoMore",
      "type": "event"
    },
    {
      "anonymous": false,
      "inputs": [],
      "name": "NewTask",
      "type": "event"
    },
    {
      "anonymous": false,
      "inputs": [],
      "name": "TaskGone",
      "type": "event"
    },
    {
      "anonymous": false,
      "inputs": [],
      "name": "TaskDone",
      "type": "event"
    },
    {
      "anonymous": false,
      "inputs": [],
      "name": "TaskNotDoneNoMore",
      "type": "event"
    },
    {
      "anonymous": false,
      "inputs": [],
      "name": "OwnershipShared",
      "type": "event"
    },
    {
      "constant": true,
      "inputs": [
        {
          "name": "_jobId",
          "type": "uint256"
        }
      ],
      "name": "isOwner",
      "outputs": [
        {
          "name": "",
          "type": "bool"
        }
      ],
      "payable": false,
      "stateMutability": "view",
      "type": "function"
    },
    {
      "constant": true,
      "inputs": [
        {
          "name": "_owner",
          "type": "address"
        }
      ],
      "name": "_getJobsByOwner",
      "outputs": [
        {
          "name": "",
          "type": "uint256[]"
        }
      ],
      "payable": false,
      "stateMutability": "view",
      "type": "function"
    },
    {
      "constant": false,
      "inputs": [
        {
          "name": "_name",
          "type": "string"
        }
      ],
      "name": "_addJob",
      "outputs": [],
      "payable": false,
      "stateMutability": "nonpayable",
      "type": "function"
    },
    {
      "constant": false,
      "inputs": [
        {
          "name": "_jobId",
          "type": "uint256"
        },
        {
          "name": "_checkListId",
          "type": "uint256"
        },
        {
          "name": "_taskName",
          "type": "string"
        }
      ],
      "name": "_addTask",
      "outputs": [],
      "payable": false,
      "stateMutability": "nonpayable",
      "type": "function"
    },
    {
      "constant": false,
      "inputs": [
        {
          "name": "_jobId",
          "type": "uint256"
        },
        {
          "name": "_checkListId",
          "type": "uint256"
        },
        {
          "name": "_taskId",
          "type": "uint256"
        }
      ],
      "name": "_deleteTask",
      "outputs": [],
      "payable": false,
      "stateMutability": "nonpayable",
      "type": "function"
    },
    {
      "constant": false,
      "inputs": [
        {
          "name": "_jobId",
          "type": "uint256"
        },
        {
          "name": "_checkListId",
          "type": "uint256"
        },
        {
          "name": "_taskId",
          "type": "uint256"
        }
      ],
      "name": "_finishTask",
      "outputs": [],
      "payable": false,
      "stateMutability": "nonpayable",
      "type": "function"
    },
    {
      "constant": false,
      "inputs": [
        {
          "name": "_jobId",
          "type": "uint256"
        },
        {
          "name": "_checkListId",
          "type": "uint256"
        },
        {
          "name": "_taskId",
          "type": "uint256"
        }
      ],
      "name": "_unfinishTask",
      "outputs": [],
      "payable": false,
      "stateMutability": "nonpayable",
      "type": "function"
    },
    {
      "constant": false,
      "inputs": [
        {
          "name": "_jobId",
          "type": "uint256"
        },
        {
          "name": "_checkListName",
          "type": "string"
        }
      ],
      "name": "_addCheckList",
      "outputs": [],
      "payable": false,
      "stateMutability": "nonpayable",
      "type": "function"
    },
    {
      "constant": false,
      "inputs": [
        {
          "name": "_jobId",
          "type": "uint256"
        },
        {
          "name": "_checkListId",
          "type": "uint256"
        }
      ],
      "name": "_deleteCheckList",
      "outputs": [],
      "payable": false,
      "stateMutability": "nonpayable",
      "type": "function"
    },
    {
      "constant": false,
      "inputs": [
        {
          "name": "_jobId",
          "type": "uint256"
        },
        {
          "name": "_checkListId",
          "type": "uint256"
        }
      ],
      "name": "_finishCheckList",
      "outputs": [],
      "payable": false,
      "stateMutability": "nonpayable",
      "type": "function"
    },
    {
      "constant": false,
      "inputs": [
        {
          "name": "_jobId",
          "type": "uint256"
        },
        {
          "name": "_checkListId",
          "type": "uint256"
        }
      ],
      "name": "_unfinishCheckList",
      "outputs": [],
      "payable": false,
      "stateMutability": "nonpayable",
      "type": "function"
    },
    {
      "constant": false,
      "inputs": [
        {
          "name": "_jobId",
          "type": "uint256"
        }
      ],
      "name": "_getJobInfo",
      "outputs": [
        {
          "name": "",
          "type": "string"
        },
        {
          "name": "",
          "type": "bool"
        },
        {
          "name": "",
          "type": "uint256"
        },
        {
          "name": "",
          "type": "uint256"
        },
        {
          "name": "",
          "type": "address[]"
        }
      ],
      "payable": false,
      "stateMutability": "nonpayable",
      "type": "function"
    },
    {
      "constant": true,
      "inputs": [
        {
          "name": "_jobId",
          "type": "uint256"
        },
        {
          "name": "_checkListId",
          "type": "uint256"
        }
      ],
      "name": "_getCheckListInfo",
      "outputs": [
        {
          "name": "",
          "type": "string"
        },
        {
          "name": "",
          "type": "bool"
        },
        {
          "name": "",
          "type": "uint256"
        },
        {
          "name": "",
          "type": "uint256"
        }
      ],
      "payable": false,
      "stateMutability": "view",
      "type": "function"
    },
    {
      "constant": true,
      "inputs": [
        {
          "name": "_jobId",
          "type": "uint256"
        },
        {
          "name": "_checkListId",
          "type": "uint256"
        },
        {
          "name": "_taskId",
          "type": "uint256"
        }
      ],
      "name": "_getTaskInfo",
      "outputs": [
        {
          "name": "",
          "type": "string"
        },
        {
          "name": "",
          "type": "bool"
        }
      ],
      "payable": false,
      "stateMutability": "view",
      "type": "function"
    },
    {
      "constant": false,
      "inputs": [
        {
          "name": "_jobId",
          "type": "uint256"
        }
      ],
      "name": "_finishJob",
      "outputs": [],
      "payable": false,
      "stateMutability": "nonpayable",
      "type": "function"
    },
    {
      "constant": false,
      "inputs": [
        {
          "name": "_newFriend",
          "type": "address"
        },
        {
          "name": "_newFriendName",
          "type": "string"
        },
        {
          "name": "_jobId",
          "type": "uint256"
        }
      ],
      "name": "_shareJobOwner",
      "outputs": [],
      "payable": false,
      "stateMutability": "nonpayable",
      "type": "function"
    },
    {
      "constant": true,
      "inputs": [
        {
          "name": "_caller",
          "type": "address"
        },
        {
          "name": "_friend",
          "type": "address"
        }
      ],
      "name": "_getFriendName",
      "outputs": [
        {
          "name": "",
          "type": "string"
        }
      ],
      "payable": false,
      "stateMutability": "view",
      "type": "function"
    }
  ],
  "bytecode": "0x608060405234801561001057600080fd5b5061469a806100206000396000f3fe60806040523480156200001157600080fd5b5060043610620001305760003560e01c806349bf7fc111620000b1578063854145ba116200007b578063854145ba14620007455780638841aa5a1462000780578063c87a9958146200086b578063db7787b61462000937578063e6014cca14620009c05762000130565b806349bf7fc114620005ce57806351ebb878146200069e5780636151979314620006d957806369b6c955146200070a5762000130565b80631f3cb8fd11620000ff5780631f3cb8fd14620002ce578063283f5e0914620003b15780632dd9b55f14620004c157806339c7639c146200050657806344c421a6146200054f5762000130565b806302a4b660146200013557806302ead9b714620001d3578063156fa1501462000218578063180aedf3146200025d575b600080fd5b6200017a600480360360208110156200014d57600080fd5b81019080803573ffffffffffffffffffffffffffffffffffffffff16906020019092919050505062000a53565b6040518080602001828103825283818151815260200191508051906020019060200280838360005b83811015620001bf578082015181840152602081019050620001a2565b505050509050019250505060405180910390f35b6200021660048036036060811015620001eb57600080fd5b8101908080359060200190929190803590602001909291908035906020019092919050505062000b2e565b005b6200025b600480360360608110156200023057600080fd5b8101908080359060200190929190803590602001909291908035906020019092919050505062000d12565b005b6200028c600480360360208110156200027557600080fd5b810190808035906020019092919050505062000f4d565b604051808273ffffffffffffffffffffffffffffffffffffffff1673ffffffffffffffffffffffffffffffffffffffff16815260200191505060405180910390f35b6200033360048036036040811015620002e657600080fd5b81019080803573ffffffffffffffffffffffffffffffffffffffff169060200190929190803573ffffffffffffffffffffffffffffffffffffffff16906020019092919050505062000f8a565b6040518080602001828103825283818151815260200191508051906020019080838360005b838110156200037557808201518184015260208101905062000358565b50505050905090810190601f168015620003a35780820380516001836020036101000a031916815260200191505b509250505060405180910390f35b620003e060048036036020811015620003c957600080fd5b8101908080359060200190929190505050620010ad565b60405180806020018615151515815260200185815260200184815260200180602001838103835288818151815260200191508051906020019080838360005b838110156200043c5780820151818401526020810190506200041f565b50505050905090810190601f1680156200046a5780820380516001836020036101000a031916815260200191505b50838103825284818151815260200191508051906020019060200280838360005b83811015620004a85780820151818401526020810190506200048b565b5050505090500197505050505050505060405180910390f35b6200050460048036036060811015620004d957600080fd5b8101908080359060200190929190803590602001909291908035906020019092919050505062001418565b005b62000535600480360360208110156200051e57600080fd5b810190808035906020019092919050505062001653565b604051808215151515815260200191505060405180910390f35b620005cc600480360360208110156200056757600080fd5b81019080803590602001906401000000008111156200058557600080fd5b8201836020820111156200059857600080fd5b80359060200191846001830284011164010000000083111715620005bb57600080fd5b909192939192939050505062001714565b005b6200060760048036036040811015620005e657600080fd5b810190808035906020019092919080359060200190929190505050620018ee565b604051808060200185151515158152602001848152602001838152602001828103825286818151815260200191508051906020019080838360005b838110156200065f57808201518184015260208101905062000642565b50505050905090810190601f1680156200068d5780820380516001836020036101000a031916815260200191505b509550505050505060405180910390f35b620006d760048036036040811015620006b657600080fd5b81019080803590602001909291908035906020019092919050505062001b4a565b005b6200070860048036036020811015620006f157600080fd5b810190808035906020019092919050505062001cf6565b005b62000743600480360360408110156200072257600080fd5b81019080803590602001909291908035906020019092919050505062001e13565b005b6200077e600480360360408110156200075d57600080fd5b81019080803590602001909291908035906020019092919050505062001f68565b005b62000869600480360360608110156200079857600080fd5b81019080803573ffffffffffffffffffffffffffffffffffffffff16906020019092919080359060200190640100000000811115620007d657600080fd5b820183602082011115620007e957600080fd5b803590602001918460018302840111640100000000831117156200080c57600080fd5b91908080601f016020809104026020016040519081016040528093929190818152602001838380828437600081840152601f19601f8201169050808301925050505050505091929192908035906020019092919050505062002114565b005b620008ae600480360360608110156200088357600080fd5b81019080803590602001909291908035906020019092919080359060200190929190505050620023b5565b604051808060200183151515158152602001828103825284818151815260200191508051906020019080838360005b83811015620008fa578082015181840152602081019050620008dd565b50505050905090810190601f168015620009285780820380516001836020036101000a031916815260200191505b50935050505060405180910390f35b620009be600480360360408110156200094f57600080fd5b8101908080359060200190929190803590602001906401000000008111156200097757600080fd5b8201836020820111156200098a57600080fd5b80359060200191846001830284011164010000000083111715620009ad57600080fd5b909192939192939050505062002683565b005b62000a5160048036036060811015620009d857600080fd5b8101908080359060200190929190803590602001909291908035906020019064010000000081111562000a0a57600080fd5b82018360208201111562000a1d57600080fd5b8035906020019184600183028401116401000000008311171562000a4057600080fd5b909192939192939050505062002805565b005b606080600360008473ffffffffffffffffffffffffffffffffffffffff1673ffffffffffffffffffffffffffffffffffffffff1681526020019081526020016000205460405190808252806020026020018201604052801562000ac55781602001602082028038833980820191505090505b509050600080905060008090505b60008054905081101562000b235762000aec8162001653565b1562000b15578083838151811062000b0057fe5b60200260200101818152505081806001019250505b808060010191505062000ad3565b508192505050919050565b8262000b3a8162001653565b62000bad576040517f08c379a00000000000000000000000000000000000000000000000000000000081526004018080602001828103825260168152602001807f49742773206e6f7420796f7572732074686f7567682e0000000000000000000081525060200191505060405180910390fd5b6000848154811062000bbb57fe5b9060005260206000200160009054906101000a900473ffffffffffffffffffffffffffffffffffffffff1673ffffffffffffffffffffffffffffffffffffffff1663ad10858f846040518263ffffffff1660e01b81526004018082815260200191505060206040518083038186803b15801562000c3757600080fd5b505afa15801562000c4c573d6000803e3d6000fd5b505050506040513d602081101562000c6357600080fd5b810190808051906020019092919050505073ffffffffffffffffffffffffffffffffffffffff166371a9faa1836040518263ffffffff1660e01b815260040180828152602001915050600060405180830381600087803b15801562000cc757600080fd5b505af115801562000cdc573d6000803e3d6000fd5b505050507f80fd3b7df5fd7ab524258a650e9e94bd164d12e3044d3ac3fb246b89e541257960405160405180910390a150505050565b8262000d1e8162001653565b62000d91576040517f08c379a00000000000000000000000000000000000000000000000000000000081526004018080602001828103825260168152602001807f49742773206e6f7420796f7572732074686f7567682e0000000000000000000081525060200191505060405180910390fd5b6000848154811062000d9f57fe5b9060005260206000200160009054906101000a900473ffffffffffffffffffffffffffffffffffffffff1673ffffffffffffffffffffffffffffffffffffffff1663ad10858f846040518263ffffffff1660e01b81526004018082815260200191505060206040518083038186803b15801562000e1b57600080fd5b505afa15801562000e30573d6000803e3d6000fd5b505050506040513d602081101562000e4757600080fd5b810190808051906020019092919050505073ffffffffffffffffffffffffffffffffffffffff1663c5bc5bd2836040518263ffffffff1660e01b81526004018082815260200191505060206040518083038186803b15801562000ea957600080fd5b505afa15801562000ebe573d6000803e3d6000fd5b505050506040513d602081101562000ed557600080fd5b810190808051906020019092919050505073ffffffffffffffffffffffffffffffffffffffff1663f8af56b76040518163ffffffff1660e01b8152600401600060405180830381600087803b15801562000f2e57600080fd5b505af115801562000f43573d6000803e3d6000fd5b5050505050505050565b6000818154811062000f5b57fe5b906000526020600020016000915054906101000a900473ffffffffffffffffffffffffffffffffffffffff1681565b6060600460008473ffffffffffffffffffffffffffffffffffffffff1673ffffffffffffffffffffffffffffffffffffffff16815260200190815260200160002060008373ffffffffffffffffffffffffffffffffffffffff1673ffffffffffffffffffffffffffffffffffffffff1681526020019081526020016000208054600181600116156101000203166002900480601f016020809104026020016040519081016040528092919081815260200182805460018160011615610100020316600290048015620010a05780601f106200107457610100808354040283529160200191620010a0565b820191906000526020600020905b8154815290600101906020018083116200108257829003601f168201915b5050505050905092915050565b60606000806000606085620010c28162001653565b62001135576040517f08c379a00000000000000000000000000000000000000000000000000000000081526004018080602001828103825260168152602001807f49742773206e6f7420796f7572732074686f7567682e0000000000000000000081525060200191505060405180910390fd5b60606000806000808b815481106200114957fe5b9060005260206000200160009054906101000a900473ffffffffffffffffffffffffffffffffffffffff1673ffffffffffffffffffffffffffffffffffffffff1663945f6b516040518163ffffffff1660e01b815260040160006040518083038186803b158015620011ba57600080fd5b505afa158015620011cf573d6000803e3d6000fd5b505050506040513d6000823e3d601f19601f820116820180604052506080811015620011fa57600080fd5b8101908080516401000000008111156200121357600080fd5b828101905060208101848111156200122a57600080fd5b81518560018202830111640100000000821117156200124857600080fd5b50509291906020018051906020019092919080519060200190929190805190602001909291905050509350935093509350606080600590805190602001906200129392919062002a16565b5060008090505b600260008e8152602001908152602001600020548110156200136e576005600160008f8152602001908152602001600020600083815260200190815260200160002060009054906101000a900473ffffffffffffffffffffffffffffffffffffffff1690806001815401808255809150509060018203906000526020600020016000909192909190916101000a81548173ffffffffffffffffffffffffffffffffffffffff021916908373ffffffffffffffffffffffffffffffffffffffff1602179055505080806001019150506200129a565b5084848484600580805480602002602001604051908101604052809291908181526020018280548015620013f857602002820191906000526020600020905b8160009054906101000a900473ffffffffffffffffffffffffffffffffffffffff1673ffffffffffffffffffffffffffffffffffffffff1681526020019060010190808311620013ad575b505050505090509a509a509a509a509a5050505050505091939590929450565b82620014248162001653565b62001497576040517f08c379a00000000000000000000000000000000000000000000000000000000081526004018080602001828103825260168152602001807f49742773206e6f7420796f7572732074686f7567682e0000000000000000000081525060200191505060405180910390fd5b60008481548110620014a557fe5b9060005260206000200160009054906101000a900473ffffffffffffffffffffffffffffffffffffffff1673ffffffffffffffffffffffffffffffffffffffff1663ad10858f846040518263ffffffff1660e01b81526004018082815260200191505060206040518083038186803b1580156200152157600080fd5b505afa15801562001536573d6000803e3d6000fd5b505050506040513d60208110156200154d57600080fd5b810190808051906020019092919050505073ffffffffffffffffffffffffffffffffffffffff1663c5bc5bd2836040518263ffffffff1660e01b81526004018082815260200191505060206040518083038186803b158015620015af57600080fd5b505afa158015620015c4573d6000803e3d6000fd5b505050506040513d6020811015620015db57600080fd5b810190808051906020019092919050505073ffffffffffffffffffffffffffffffffffffffff16637bc6ae7f6040518163ffffffff1660e01b8152600401600060405180830381600087803b1580156200163457600080fd5b505af115801562001649573d6000803e3d6000fd5b5050505050505050565b600080600090505b6002600084815260200190815260200160002054811015620017095760016000848152602001908152602001600020600082815260200190815260200160002060009054906101000a900473ffffffffffffffffffffffffffffffffffffffff1673ffffffffffffffffffffffffffffffffffffffff163373ffffffffffffffffffffffffffffffffffffffff161415620016fb5760019150506200170f565b80806001019150506200165b565b50600090505b919050565b60008282604051620017269062002aa5565b80806020018281038252848482818152602001925080828437600081840152601f19601f8201169050808301925050509350505050604051809103906000f08015801562001778573d6000803e3d6000fd5b5090506000600160008390806001815401808255809150509060018203906000526020600020016000909192909190916101000a81548173ffffffffffffffffffffffffffffffffffffffff021916908373ffffffffffffffffffffffffffffffffffffffff1602179055500390503360016000838152602001908152602001600020600080815260200190815260200160002060006101000a81548173ffffffffffffffffffffffffffffffffffffffff021916908373ffffffffffffffffffffffffffffffffffffffff1602179055506002600082815260200190815260200160002060008154809291906001019190505550600360003373ffffffffffffffffffffffffffffffffffffffff1673ffffffffffffffffffffffffffffffffffffffff168152602001908152602001600020600081548092919060010191905055507f2cea1d004fddce1cf14f4bf49099207deb759be6c434028476372d5d6e2fe69c60405160405180910390a150505050565b6060600080600085620019018162001653565b62001974576040517f08c379a00000000000000000000000000000000000000000000000000000000081526004018080602001828103825260168152602001807f49742773206e6f7420796f7572732074686f7567682e0000000000000000000081525060200191505060405180910390fd5b600087815481106200198257fe5b9060005260206000200160009054906101000a900473ffffffffffffffffffffffffffffffffffffffff1673ffffffffffffffffffffffffffffffffffffffff1663ad10858f876040518263ffffffff1660e01b81526004018082815260200191505060206040518083038186803b158015620019fe57600080fd5b505afa15801562001a13573d6000803e3d6000fd5b505050506040513d602081101562001a2a57600080fd5b810190808051906020019092919050505073ffffffffffffffffffffffffffffffffffffffff1663945f6b516040518163ffffffff1660e01b815260040160006040518083038186803b15801562001a8157600080fd5b505afa15801562001a96573d6000803e3d6000fd5b505050506040513d6000823e3d601f19601f82011682018060405250608081101562001ac157600080fd5b81019080805164010000000081111562001ada57600080fd5b8281019050602081018481111562001af157600080fd5b815185600182028301116401000000008211171562001b0f57600080fd5b505092919060200180519060200190929190805190602001909291908051906020019092919050505094509450945094505092959194509250565b8162001b568162001653565b62001bc9576040517f08c379a00000000000000000000000000000000000000000000000000000000081526004018080602001828103825260168152602001807f49742773206e6f7420796f7572732074686f7567682e0000000000000000000081525060200191505060405180910390fd5b6000838154811062001bd757fe5b9060005260206000200160009054906101000a900473ffffffffffffffffffffffffffffffffffffffff1673ffffffffffffffffffffffffffffffffffffffff1663ad10858f836040518263ffffffff1660e01b81526004018082815260200191505060206040518083038186803b15801562001c5357600080fd5b505afa15801562001c68573d6000803e3d6000fd5b505050506040513d602081101562001c7f57600080fd5b810190808051906020019092919050505073ffffffffffffffffffffffffffffffffffffffff16637bc6ae7f6040518163ffffffff1660e01b8152600401600060405180830381600087803b15801562001cd857600080fd5b505af115801562001ced573d6000803e3d6000fd5b50505050505050565b8062001d028162001653565b62001d75576040517f08c379a00000000000000000000000000000000000000000000000000000000081526004018080602001828103825260168152602001807f49742773206e6f7420796f7572732074686f7567682e0000000000000000000081525060200191505060405180910390fd5b6000828154811062001d8357fe5b9060005260206000200160009054906101000a900473ffffffffffffffffffffffffffffffffffffffff1673ffffffffffffffffffffffffffffffffffffffff1663f8af56b76040518163ffffffff1660e01b8152600401600060405180830381600087803b15801562001df657600080fd5b505af115801562001e0b573d6000803e3d6000fd5b505050505050565b8162001e1f8162001653565b62001e92576040517f08c379a00000000000000000000000000000000000000000000000000000000081526004018080602001828103825260168152602001807f49742773206e6f7420796f7572732074686f7567682e0000000000000000000081525060200191505060405180910390fd5b6000838154811062001ea057fe5b9060005260206000200160009054906101000a900473ffffffffffffffffffffffffffffffffffffffff1673ffffffffffffffffffffffffffffffffffffffff166395e7672f836040518263ffffffff1660e01b815260040180828152602001915050600060405180830381600087803b15801562001f1e57600080fd5b505af115801562001f33573d6000803e3d6000fd5b505050507f20f08b6db563fb1778cc50b2989675c0888309b4f0bd0ea47b855e50b6296cfb60405160405180910390a1505050565b8162001f748162001653565b62001fe7576040517f08c379a00000000000000000000000000000000000000000000000000000000081526004018080602001828103825260168152602001807f49742773206e6f7420796f7572732074686f7567682e0000000000000000000081525060200191505060405180910390fd5b6000838154811062001ff557fe5b9060005260206000200160009054906101000a900473ffffffffffffffffffffffffffffffffffffffff1673ffffffffffffffffffffffffffffffffffffffff1663ad10858f836040518263ffffffff1660e01b81526004018082815260200191505060206040518083038186803b1580156200207157600080fd5b505afa15801562002086573d6000803e3d6000fd5b505050506040513d60208110156200209d57600080fd5b810190808051906020019092919050505073ffffffffffffffffffffffffffffffffffffffff1663f8af56b76040518163ffffffff1660e01b8152600401600060405180830381600087803b158015620020f657600080fd5b505af11580156200210b573d6000803e3d6000fd5b50505050505050565b80620021208162001653565b62002193576040517f08c379a00000000000000000000000000000000000000000000000000000000081526004018080602001828103825260168152602001807f49742773206e6f7420796f7572732074686f7567682e0000000000000000000081525060200191505060405180910390fd5b836001600084815260200190815260200160002060006002600086815260200190815260200160002054815260200190815260200160002060006101000a81548173ffffffffffffffffffffffffffffffffffffffff021916908373ffffffffffffffffffffffffffffffffffffffff1602179055506002600083815260200190815260200160002060008154809291906001019190505550600360008573ffffffffffffffffffffffffffffffffffffffff1673ffffffffffffffffffffffffffffffffffffffff1681526020019081526020016000206000815480929190600101919050555060008090505b60026000848152602001908152602001600020548110156200238257836004600060016000878152602001908152602001600020600085815260200190815260200160002060009054906101000a900473ffffffffffffffffffffffffffffffffffffffff1673ffffffffffffffffffffffffffffffffffffffff1673ffffffffffffffffffffffffffffffffffffffff16815260200190815260200160002060008773ffffffffffffffffffffffffffffffffffffffff1673ffffffffffffffffffffffffffffffffffffffff16815260200190815260200160002090805190602001906200237392919062002ab3565b50808060010191505062002281565b507fa74ef15a191eadbca1159f3031f5c81a409454c40587d3253bec09e1ba3994c060405160405180910390a150505050565b6060600084620023c58162001653565b62002438576040517f08c379a00000000000000000000000000000000000000000000000000000000081526004018080602001828103825260168152602001807f49742773206e6f7420796f7572732074686f7567682e0000000000000000000081525060200191505060405180910390fd5b600086815481106200244657fe5b9060005260206000200160009054906101000a900473ffffffffffffffffffffffffffffffffffffffff1673ffffffffffffffffffffffffffffffffffffffff1663ad10858f866040518263ffffffff1660e01b81526004018082815260200191505060206040518083038186803b158015620024c257600080fd5b505afa158015620024d7573d6000803e3d6000fd5b505050506040513d6020811015620024ee57600080fd5b810190808051906020019092919050505073ffffffffffffffffffffffffffffffffffffffff1663c5bc5bd2856040518263ffffffff1660e01b81526004018082815260200191505060206040518083038186803b1580156200255057600080fd5b505afa15801562002565573d6000803e3d6000fd5b505050506040513d60208110156200257c57600080fd5b810190808051906020019092919050505073ffffffffffffffffffffffffffffffffffffffff1663945f6b516040518163ffffffff1660e01b815260040160006040518083038186803b158015620025d357600080fd5b505afa158015620025e8573d6000803e3d6000fd5b505050506040513d6000823e3d601f19601f8201168201806040525060408110156200261357600080fd5b8101908080516401000000008111156200262c57600080fd5b828101905060208101848111156200264357600080fd5b81518560018202830111640100000000821117156200266157600080fd5b5050929190602001805190602001909291905050509250925050935093915050565b826200268f8162001653565b62002702576040517f08c379a00000000000000000000000000000000000000000000000000000000081526004018080602001828103825260168152602001807f49742773206e6f7420796f7572732074686f7567682e0000000000000000000081525060200191505060405180910390fd5b600084815481106200271057fe5b9060005260206000200160009054906101000a900473ffffffffffffffffffffffffffffffffffffffff1673ffffffffffffffffffffffffffffffffffffffff1663c240adad84846040518363ffffffff1660e01b815260040180806020018281038252848482818152602001925080828437600081840152601f19601f8201169050808301925050509350505050600060405180830381600087803b158015620027ba57600080fd5b505af1158015620027cf573d6000803e3d6000fd5b505050507f76d60b817ebeb5c8edb71dd78a40c93e4d63b8e36f13072025b6d6b757cfbefa60405160405180910390a150505050565b83620028118162001653565b62002884576040517f08c379a00000000000000000000000000000000000000000000000000000000081526004018080602001828103825260168152602001807f49742773206e6f7420796f7572732074686f7567682e0000000000000000000081525060200191505060405180910390fd5b600085815481106200289257fe5b9060005260206000200160009054906101000a900473ffffffffffffffffffffffffffffffffffffffff1673ffffffffffffffffffffffffffffffffffffffff1663ad10858f856040518263ffffffff1660e01b81526004018082815260200191505060206040518083038186803b1580156200290e57600080fd5b505afa15801562002923573d6000803e3d6000fd5b505050506040513d60208110156200293a57600080fd5b810190808051906020019092919050505073ffffffffffffffffffffffffffffffffffffffff1663132334f884846040518363ffffffff1660e01b815260040180806020018281038252848482818152602001925080828437600081840152601f19601f8201169050808301925050509350505050600060405180830381600087803b158015620029ca57600080fd5b505af1158015620029df573d6000803e3d6000fd5b505050507f31f44556c6aa9da5a9d68dc15bf59bb27fd22bc97ad2c1235fd8a010f864a09c60405160405180910390a15050505050565b82805482825590600052602060002090810192821562002a92579160200282015b8281111562002a915782518260006101000a81548173ffffffffffffffffffffffffffffffffffffffff021916908373ffffffffffffffffffffffffffffffffffffffff1602179055509160200191906001019062002a37565b5b50905062002aa1919062002b3a565b5090565b611ac68062002ba983390190565b828054600181600116156101000203166002900490600052602060002090601f016020900481019282601f1062002af657805160ff191683800117855562002b27565b8280016001018555821562002b27579182015b8281111562002b2657825182559160200191906001019062002b09565b5b50905062002b36919062002b80565b5090565b62002b7d91905b8082111562002b7957600081816101000a81549073ffffffffffffffffffffffffffffffffffffffff02191690555060010162002b41565b5090565b90565b62002ba591905b8082111562002ba157600081600090555060010162002b87565b5090565b9056fe608060405234801561001057600080fd5b50604051611ac6380380611ac68339810180604052602081101561003357600080fd5b81019080805164010000000081111561004b57600080fd5b8281019050602081018481111561006157600080fd5b815185600182028301116401000000008211171561007e57600080fd5b5050929190505050806000908051906020019061009c9291906100be565b506000600160006101000a81548160ff02191690831515021790555050610163565b828054600181600116156101000203166002900490600052602060002090601f016020900481019282601f106100ff57805160ff191683800117855561012d565b8280016001018555821561012d579182015b8281111561012c578251825591602001919060010190610111565b5b50905061013a919061013e565b5090565b61016091905b8082111561015c576000816000905550600101610144565b5090565b90565b611954806101726000396000f3fe608060405234801561001057600080fd5b50600436106100625760003560e01c8063040c014b14610067578063945f6b51146100e057806395e7672f1461017c578063ad10858f146101aa578063c240adad14610218578063f8af56b714610291575b600080fd5b6100de6004803603602081101561007d57600080fd5b810190808035906020019064010000000081111561009a57600080fd5b8201836020820111156100ac57600080fd5b803590602001918460018302840111640100000000831117156100ce57600080fd5b909192939192939050505061029b565b005b6100e86102b1565b604051808060200185151515158152602001848152602001838152602001828103825286818151815260200191508051906020019080838360005b8381101561013e578082015181840152602081019050610123565b50505050905090810190601f16801561016b5780820380516001836020036101000a031916815260200191505b509550505050505060405180910390f35b6101a86004803603602081101561019257600080fd5b8101908080359060200190929190505050610384565b005b6101d6600480360360208110156101c057600080fd5b810190808035906020019092919050505061044b565b604051808273ffffffffffffffffffffffffffffffffffffffff1673ffffffffffffffffffffffffffffffffffffffff16815260200191505060405180910390f35b61028f6004803603602081101561022e57600080fd5b810190808035906020019064010000000081111561024b57600080fd5b82018360208201111561025d57600080fd5b8035906020019184600183028401116401000000008311171561027f57600080fd5b9091929391929390505050610503565b005b610299610610565b005b8181600091906102ac929190610885565b505050565b60606000806000806102c161070d565b90506000600160009054906101000a900460ff1660035483838054600181600116156101000203166002900480601f01602080910402602001604051908101604052809291908181526020018280546001816001161561010002031660029004801561036e5780601f106103435761010080835404028352916020019161036e565b820191906000526020600020905b81548152906001019060200180831161035157829003601f168201915b5050505050935094509450945094505090919293565b60008190505b60016003540381101561043457600260018201815481106103a757fe5b9060005260206000200160009054906101000a900473ffffffffffffffffffffffffffffffffffffffff16600282815481106103df57fe5b9060005260206000200160006101000a81548173ffffffffffffffffffffffffffffffffffffffff021916908373ffffffffffffffffffffffffffffffffffffffff160217905550808060010191505061038a565b506003600081548092919060019003919050555050565b600060035482106104c4576040517f08c379a00000000000000000000000000000000000000000000000000000000081526004018080602001828103825260158152602001807f436865636b6c697374206d75737420657869737473000000000000000000000081525060200191505060405180910390fd5b600282815481106104d157fe5b9060005260206000200160009054906101000a900473ffffffffffffffffffffffffffffffffffffffff169050919050565b6000828260405161051390610905565b80806020018281038252848482818152602001925080828437600081840152601f19601f8201169050808301925050509350505050604051809103906000f080158015610564573d6000803e3d6000fd5b50905060028190806001815401808255809150509060018203906000526020600020016000909192909190916101000a81548173ffffffffffffffffffffffffffffffffffffffff021916908373ffffffffffffffffffffffffffffffffffffffff160217905550506003600081548092919060010191905055507f76d60b817ebeb5c8edb71dd78a40c93e4d63b8e36f13072025b6d6b757cfbefa60405160405180910390a1505050565b60008090505b6003548110156106c4576002818154811061062d57fe5b9060005260206000200160009054906101000a900473ffffffffffffffffffffffffffffffffffffffff1673ffffffffffffffffffffffffffffffffffffffff1663f8af56b76040518163ffffffff1660e01b8152600401600060405180830381600087803b15801561069f57600080fd5b505af11580156106b3573d6000803e3d6000fd5b505050508080600101915050610616565b5060018060006101000a81548160ff0219169083151502179055507f3c350d18e479f5682191b9cdb4cdfa755c912f69d2d5ab94d910df38dec36a7260405160405180910390a1565b60008060008090505b60028054905081101561087d5760006002828154811061073257fe5b9060005260206000200160009054906101000a900473ffffffffffffffffffffffffffffffffffffffff1673ffffffffffffffffffffffffffffffffffffffff1663945f6b516040518163ffffffff1660e01b815260040160006040518083038186803b1580156107a257600080fd5b505afa1580156107b6573d6000803e3d6000fd5b505050506040513d6000823e3d601f19601f8201168201806040525060808110156107e057600080fd5b8101908080516401000000008111156107f857600080fd5b8281019050602081018481111561080e57600080fd5b815185600182028301116401000000008211171561082b57600080fd5b5050929190602001805190602001909291908051906020019092919080519060200190929190505050505091505060011515811515141561086f5782806001019350505b508080600101915050610716565b508091505090565b828054600181600116156101000203166002900490600052602060002090601f016020900481019282601f106108c657803560ff19168380011785556108f4565b828001600101855582156108f4579182015b828111156108f35782358255916020019190600101906108d8565b5b5090506109019190610912565b5090565b610ff18061093883390190565b61093491905b80821115610930576000816000905550600101610918565b5090565b9056fe608060405234801561001057600080fd5b50604051610ff1380380610ff18339810180604052602081101561003357600080fd5b81019080805164010000000081111561004b57600080fd5b8281019050602081018481111561006157600080fd5b815185600182028301116401000000008211171561007e57600080fd5b5050929190505050806000908051906020019061009c9291906100be565b506000600160006101000a81548160ff02191690831515021790555050610163565b828054600181600116156101000203166002900490600052602060002090601f016020900481019282601f106100ff57805160ff191683800117855561012d565b8280016001018555821561012d579182015b8281111561012c578251825591602001919060010190610111565b5b50905061013a919061013e565b5090565b61016091905b8082111561015c576000816000905550600101610144565b5090565b90565b610e7f806101726000396000f3fe608060405234801561001057600080fd5b50600436106100885760003560e01c80637bc6ae7f1161005b5780637bc6ae7f146101cb578063945f6b51146101d5578063c5bc5bd214610271578063f8af56b7146102df57610088565b8063040c014b1461008d5780630d1f7d9414610106578063132334f81461012457806371a9faa11461019d575b600080fd5b610104600480360360208110156100a357600080fd5b81019080803590602001906401000000008111156100c057600080fd5b8201836020820111156100d257600080fd5b803590602001918460018302840111640100000000831117156100f457600080fd5b90919293919293905050506102e9565b005b61010e6102ff565b6040518082815260200191505060405180910390f35b61019b6004803603602081101561013a57600080fd5b810190808035906020019064010000000081111561015757600080fd5b82018360208201111561016957600080fd5b8035906020019184600183028401116401000000008311171561018b57600080fd5b9091929391929390505050610461565b005b6101c9600480360360208110156101b357600080fd5b8101908080359060200190929190505050610599565b005b6101d3610660565b005b6101dd61067d565b604051808060200185151515158152602001848152602001838152602001828103825286818151815260200191508051906020019080838360005b83811015610233578082015181840152602081019050610218565b50505050905090810190601f1680156102605780820380516001836020036101000a031916815260200191505b509550505050505060405180910390f35b61029d6004803603602081101561028757600080fd5b8101908080359060200190929190505050610750565b604051808273ffffffffffffffffffffffffffffffffffffffff1673ffffffffffffffffffffffffffffffffffffffff16815260200191505060405180910390f35b6102e7610808565b005b8181600091906102fa929190610905565b505050565b60008060008090505b6002805490508110156104595760006002828154811061032457fe5b9060005260206000200160009054906101000a900473ffffffffffffffffffffffffffffffffffffffff1673ffffffffffffffffffffffffffffffffffffffff1663945f6b516040518163ffffffff1660e01b815260040160006040518083038186803b15801561039457600080fd5b505afa1580156103a8573d6000803e3d6000fd5b505050506040513d6000823e3d601f19601f8201168201806040525060408110156103d257600080fd5b8101908080516401000000008111156103ea57600080fd5b8281019050602081018481111561040057600080fd5b815185600182028301116401000000008211171561041d57600080fd5b50509291906020018051906020019092919050505091505060011515811515141561044b5782806001019350505b508080600101915050610308565b508091505090565b6002828260405161047190610985565b80806020018281038252848482818152602001925080828437600081840152601f19601f8201169050808301925050509350505050604051809103906000f0801580156104c2573d6000803e3d6000fd5b5090806001815401808255809150509060018203906000526020600020016000909192909190916101000a81548173ffffffffffffffffffffffffffffffffffffffff021916908373ffffffffffffffffffffffffffffffffffffffff16021790555050600360008154809291906001019190505550600160009054906101000a900460ff1615610569576000600160006101000a81548160ff0219169083151502179055505b7f31f44556c6aa9da5a9d68dc15bf59bb27fd22bc97ad2c1235fd8a010f864a09c60405160405180910390a15050565b60008190505b60016003540381101561064957600260018201815481106105bc57fe5b9060005260206000200160009054906101000a900473ffffffffffffffffffffffffffffffffffffffff16600282815481106105f457fe5b9060005260206000200160006101000a81548173ffffffffffffffffffffffffffffffffffffffff021916908373ffffffffffffffffffffffffffffffffffffffff160217905550808060010191505061059f565b506003600081548092919060019003919050555050565b6000600160006101000a81548160ff021916908315150217905550565b606060008060008061068d6102ff565b90506000600160009054906101000a900460ff1660035483838054600181600116156101000203166002900480601f01602080910402602001604051908101604052809291908181526020018280546001816001161561010002031660029004801561073a5780601f1061070f5761010080835404028352916020019161073a565b820191906000526020600020905b81548152906001019060200180831161071d57829003601f168201915b5050505050935094509450945094505090919293565b600060035482106107c9576040517f08c379a00000000000000000000000000000000000000000000000000000000081526004018080602001828103825260108152602001807f5461736b206d757374206578697374730000000000000000000000000000000081525060200191505060405180910390fd5b600282815481106107d657fe5b9060005260206000200160009054906101000a900473ffffffffffffffffffffffffffffffffffffffff169050919050565b60008090505b6003548110156108bc576002818154811061082557fe5b9060005260206000200160009054906101000a900473ffffffffffffffffffffffffffffffffffffffff1673ffffffffffffffffffffffffffffffffffffffff1663f8af56b76040518163ffffffff1660e01b8152600401600060405180830381600087803b15801561089757600080fd5b505af11580156108ab573d6000803e3d6000fd5b50505050808060010191505061080e565b5060018060006101000a81548160ff0219169083151502179055507fbe99a2dd87c921407088a09c53637397cc455bce2c952da3d8efc389044f3f3e60405160405180910390a1565b828054600181600116156101000203166002900490600052602060002090601f016020900481019282601f1061094657803560ff1916838001178555610974565b82800160010185558215610974579182015b82811115610973578235825591602001919060010190610958565b5b5090506109819190610992565b5090565b61049c806109b883390190565b6109b491905b808211156109b0576000816000905550600101610998565b5090565b9056fe608060405234801561001057600080fd5b5060405161049c38038061049c8339810180604052602081101561003357600080fd5b81019080805164010000000081111561004b57600080fd5b8281019050602081018481111561006157600080fd5b815185600182028301116401000000008211171561007e57600080fd5b5050929190505050806000908051906020019061009c9291906100a3565b5050610148565b828054600181600116156101000203166002900490600052602060002090601f016020900481019282601f106100e457805160ff1916838001178555610112565b82800160010185558215610112579182015b828111156101115782518255916020019190600101906100f6565b5b50905061011f9190610123565b5090565b61014591905b80821115610141576000816000905550600101610129565b5090565b90565b610345806101576000396000f3fe608060405234801561001057600080fd5b506004361061004c5760003560e01c8063040c014b146100515780637bc6ae7f146100ca578063945f6b51146100d4578063f8af56b714610162575b600080fd5b6100c86004803603602081101561006757600080fd5b810190808035906020019064010000000081111561008457600080fd5b82018360208201111561009657600080fd5b803590602001918460018302840111640100000000831117156100b857600080fd5b909192939192939050505061016c565b005b6100d2610182565b005b6100dc61019f565b604051808060200183151515158152602001828103825284818151815260200191508051906020019080838360005b8381101561012657808201518184015260208101905061010b565b50505050905090810190601f1680156101535780820380516001836020036101000a031916815260200191505b50935050505060405180910390f35b61016a610258565b005b81816000919061017d929190610274565b505050565b6000600160006101000a81548160ff021916908315150217905550565b6060600080600160009054906101000a900460ff16818054600181600116156101000203166002900480601f0160208091040260200160405190810160405280929190818152602001828054600181600116156101000203166002900480156102495780601f1061021e57610100808354040283529160200191610249565b820191906000526020600020905b81548152906001019060200180831161022c57829003601f168201915b50505050509150915091509091565b60018060006101000a81548160ff021916908315150217905550565b828054600181600116156101000203166002900490600052602060002090601f016020900481019282601f106102b557803560ff19168380011785556102e3565b828001600101855582156102e3579182015b828111156102e25782358255916020019190600101906102c7565b5b5090506102f091906102f4565b5090565b61031691905b808211156103125760008160009055506001016102fa565b5090565b9056fea165627a7a72305820600eaa875c3770f31c68764141f029d9412638ae5e976e588cfb50a139cf382a0029a165627a7a723058204cb404bff34c137c2123ea8bedb53e43a69f0b8583448107b443ecc192222e750029a165627a7a7230582008f762164a48df40767f40689966d3fb2235fda44d7d13f090887f0a74c44ef20029a165627a7a72305820e3ff15eae51c4282be5c150b8a684dd2b8aff71bbafbbc30df7b2322314907fe0029",
  "source": "pragma solidity ^0.5.8;\r\nimport \"./Job.sol\";\r\n\r\ncontract Bulletin {\r\n\r\n  Job[] public jobs;\r\n\r\n  function isOwner(uint _jobId) public view returns(bool) {\r\n    for(uint i = 0; i < jobOwnerCount[_jobId]; i++) {\r\n      if(msg.sender == jobToOwner[_jobId][i]) return true;\r\n    }\r\n    return false;}\r\n\r\n  modifier onlyOwner(uint _jobId) {\r\n    require(isOwner(_jobId), \"It's not yours though.\");\r\n    _;}\r\n\r\n  modifier trueOwner(uint jobId) {\r\n    require(msg.sender == jobToOwner[jobId][0], \"Lolz it's not really yours though.\");\r\n    _;}\r\n\r\n  mapping(uint => mapping(uint => address)) jobToOwner;\r\n  mapping(uint => uint) jobOwnerCount;\r\n  mapping(address => uint) ownerJobsCount;\r\n  mapping(address => mapping(address => string)) nicknameList;\r\n\r\n  event NewJob();\r\n  event NewCheckList();\r\n  event CheckListGone();\r\n  event CheckListDone();\r\n  event CheckListNotDoneNoMore();\r\n  event NewTask();\r\n  event TaskGone();\r\n  event TaskDone();\r\n  event TaskNotDoneNoMore();\r\n  event OwnershipShared();\r\n\r\n  function _getJobsByOwner(address _owner) external view returns(uint[] memory){\r\n    uint[] memory result = new uint[](ownerJobsCount[_owner]);\r\n    uint counter = 0;\r\n    for(uint i = 0; i < jobs.length; i++){\r\n      if(isOwner(i)) {\r\n        result[counter] = i;\r\n        counter++;\r\n      }\r\n    }\r\n    return result;}\r\n\r\n  function _addJob(string calldata _name) external {\r\n    Job sample = new Job(_name);\r\n    uint id = jobs.push(sample) - 1;\r\n    jobToOwner[id][0] = msg.sender;\r\n    jobOwnerCount[id]++;\r\n    ownerJobsCount[msg.sender]++;\r\n    emit NewJob();}\r\n\r\n  function _addTask(uint _jobId, uint _checkListId, string calldata _taskName) external onlyOwner(_jobId) {\r\n    jobs[_jobId]._getCheckList(_checkListId)._addTask(_taskName);\r\n    emit NewTask();}\r\n\r\n  function _deleteTask(uint _jobId, uint _checkListId, uint _taskId) external onlyOwner(_jobId) {\r\n    jobs[_jobId]._getCheckList(_checkListId)._deleteTask(_taskId);\r\n    emit TaskGone();}\r\n\r\n  function _finishTask (uint _jobId, uint _checkListId, uint _taskId) external onlyOwner(_jobId) {\r\n    jobs[_jobId]._getCheckList(_checkListId)._getTask(_taskId)._finish();\r\n    /*emit TaskDone();*/}\r\n\r\n  function _unfinishTask(uint _jobId, uint _checkListId, uint _taskId) external onlyOwner(_jobId){\r\n    jobs[_jobId]._getCheckList(_checkListId)._getTask(_taskId)._unfinish();\r\n    /*emit TaskNotDoneNoMore();*/}\r\n\r\n  function _addCheckList(uint _jobId, string calldata _checkListName) external onlyOwner(_jobId) {\r\n    jobs[_jobId]._addCheckList(_checkListName);\r\n    emit NewCheckList();}\r\n\r\n  function _deleteCheckList(uint _jobId, uint _checkListId) external onlyOwner(_jobId) {\r\n    jobs[_jobId]._deleteCheckList(_checkListId);\r\n    emit CheckListGone();}\r\n\r\n  function _finishCheckList (uint _jobId, uint _checkListId) external onlyOwner(_jobId) {\r\n    jobs[_jobId]._getCheckList(_checkListId)._finish();\r\n    /* emit CheckListDone();*/}\r\n\r\n  function _unfinishCheckList (uint _jobId, uint _checkListId) external onlyOwner(_jobId) {\r\n    jobs[_jobId]._getCheckList(_checkListId)._unfinish();\r\n    /*emit CheckListNotDoneNoMore();*/}\r\n\r\n  address[] returnValues;\r\n  function _getJobInfo(uint _jobId) external onlyOwner(_jobId) returns (string memory, bool, uint, uint, address[] memory){\r\n      //\r\n      ///\r\n      ////\r\n      //Will have Bug after share permission in later version\r\n      ////\r\n      ///\r\n      //\r\n    (string memory name, bool finish, uint checkListsCount, uint progress) = jobs[_jobId]._getInfo();\r\n    address[] memory sharedOwnersAddress;\r\n    returnValues = sharedOwnersAddress;\r\n    for(uint i = 0; i < jobOwnerCount[_jobId]; i++) {\r\n      returnValues.push(jobToOwner[_jobId][i]);\r\n    }\r\n    return (name, finish, checkListsCount, progress, returnValues);}\r\n      //\r\n      ///\r\n      ////\r\n      //Will have Bug after share permission in later version\r\n      ////\r\n      ///\r\n      //\r\n\r\n  function _getCheckListInfo (uint _jobId, uint _checkListId) external view onlyOwner(_jobId) returns (string memory, bool, uint, uint){\r\n    return jobs[_jobId]._getCheckList(_checkListId)._getInfo();}\r\n\r\n  function _getTaskInfo (uint _jobId, uint _checkListId, uint _taskId) external view onlyOwner(_jobId) returns (string memory, bool) {\r\n    return jobs[_jobId]._getCheckList(_checkListId)._getTask(_taskId)._getInfo();}\r\n\r\n  function _finishJob (uint _jobId) external onlyOwner(_jobId) {\r\n    jobs[_jobId]._finish();}\r\n\r\n  function _shareJobOwner (address _newFriend, string memory _newFriendName, uint _jobId) public onlyOwner(_jobId) {\r\n    jobToOwner[_jobId][jobOwnerCount[_jobId]] = _newFriend;\r\n    jobOwnerCount[_jobId]++;\r\n    ownerJobsCount[_newFriend]++;\r\n    for(uint i = 0; i < jobOwnerCount[_jobId]; i++) {\r\n      nicknameList[jobToOwner[_jobId][i]][_newFriend] = _newFriendName;\r\n    }\r\n    emit OwnershipShared();}\r\n\r\n  function _getFriendName (address _caller, address _friend) public view returns(string memory) {\r\n    return nicknameList[_caller][_friend];}\r\n\r\n  // function _revokeOwner (address _oldFriend, uint _jobId) public trueOwner(_jobId) {\r\n  //   require(_oldFriend != msg.sender, \"Better to tell the cops than doing this\");\r\n  //   for(uint i = 1; i < jobOwnerCount[_jobId]; i++) {\r\n  //     if(jobToOwner[_jobId][i] == _oldFriend) {\r\n  //       if(i != jobOwnerCount[_jobId]){\r\n  //         for(uint k = i; k < jobOwnerCount[_jobId]-1; k++) {\r\n  //           jobToOwner[_jobId][k] = jobToOwner[_jobId][k+1];\r\n  //         }\r\n  //       } else {\r\n  //         jobToOwner[_jobId][i] = address(0);\r\n  //       }\r\n  //       ownerJobsCount[_oldFriend]--;\r\n  //     }\r\n  //   }}\r\n}",
  "sourcePath": "C:/Users/thovi/Documents/High_tech/Blockchain/React/check_list/contracts/Bulletin.sol",
  "compiler": {
    "name": "solc",
    "version": "0.5.8+commit.23d335f2.Emscripten.clang"
  },
  "schemaVersion": "3.0.11",
  "updatedAt": "2019-08-07T06:21:18.994Z",
  "devdoc": {
    "methods": {}
  },
  "userdoc": {
    "methods": {}
  }
}