{
  "contractName": "Job",
  "abi": [
    {
      "inputs": [
        {
          "name": "_name",
          "type": "string"
        }
      ],
      "payable": false,
      "stateMutability": "nonpayable",
      "type": "constructor"
    },
    {
      "anonymous": false,
      "inputs": [],
      "name": "NewCheckList",
      "type": "event"
    },
    {
      "anonymous": false,
      "inputs": [],
      "name": "JobDone",
      "type": "event"
    },
    {
      "constant": false,
      "inputs": [
        {
          "name": "_name",
          "type": "string"
        }
      ],
      "name": "_changeName",
      "outputs": [],
      "payable": false,
      "stateMutability": "nonpayable",
      "type": "function"
    },
    {
      "constant": false,
      "inputs": [],
      "name": "_finish",
      "outputs": [],
      "payable": false,
      "stateMutability": "nonpayable",
      "type": "function"
    },
    {
      "constant": true,
      "inputs": [],
      "name": "_getInfo",
      "outputs": [
        {
          "name": "",
          "type": "string"
        },
        {
          "name": "",
          "type": "bool"
        },
        {
          "name": "",
          "type": "uint256"
        },
        {
          "name": "",
          "type": "uint256"
        }
      ],
      "payable": false,
      "stateMutability": "view",
      "type": "function"
    },
    {
      "constant": false,
      "inputs": [
        {
          "name": "_name",
          "type": "string"
        }
      ],
      "name": "_addCheckList",
      "outputs": [],
      "payable": false,
      "stateMutability": "nonpayable",
      "type": "function"
    },
    {
      "constant": false,
      "inputs": [
        {
          "name": "_checkListId",
          "type": "uint256"
        }
      ],
      "name": "_deleteCheckList",
      "outputs": [],
      "payable": false,
      "stateMutability": "nonpayable",
      "type": "function"
    },
    {
      "constant": true,
      "inputs": [
        {
          "name": "_checkListId",
          "type": "uint256"
        }
      ],
      "name": "_getCheckList",
      "outputs": [
        {
          "name": "",
          "type": "address"
        }
      ],
      "payable": false,
      "stateMutability": "view",
      "type": "function"
    }
  ],
  "bytecode": "0x608060405234801561001057600080fd5b50604051611ac6380380611ac68339810180604052602081101561003357600080fd5b81019080805164010000000081111561004b57600080fd5b8281019050602081018481111561006157600080fd5b815185600182028301116401000000008211171561007e57600080fd5b5050929190505050806000908051906020019061009c9291906100be565b506000600160006101000a81548160ff02191690831515021790555050610163565b828054600181600116156101000203166002900490600052602060002090601f016020900481019282601f106100ff57805160ff191683800117855561012d565b8280016001018555821561012d579182015b8281111561012c578251825591602001919060010190610111565b5b50905061013a919061013e565b5090565b61016091905b8082111561015c576000816000905550600101610144565b5090565b90565b611954806101726000396000f3fe608060405234801561001057600080fd5b50600436106100625760003560e01c8063040c014b14610067578063945f6b51146100e057806395e7672f1461017c578063ad10858f146101aa578063c240adad14610218578063f8af56b714610291575b600080fd5b6100de6004803603602081101561007d57600080fd5b810190808035906020019064010000000081111561009a57600080fd5b8201836020820111156100ac57600080fd5b803590602001918460018302840111640100000000831117156100ce57600080fd5b909192939192939050505061029b565b005b6100e86102b1565b604051808060200185151515158152602001848152602001838152602001828103825286818151815260200191508051906020019080838360005b8381101561013e578082015181840152602081019050610123565b50505050905090810190601f16801561016b5780820380516001836020036101000a031916815260200191505b509550505050505060405180910390f35b6101a86004803603602081101561019257600080fd5b8101908080359060200190929190505050610384565b005b6101d6600480360360208110156101c057600080fd5b810190808035906020019092919050505061044b565b604051808273ffffffffffffffffffffffffffffffffffffffff1673ffffffffffffffffffffffffffffffffffffffff16815260200191505060405180910390f35b61028f6004803603602081101561022e57600080fd5b810190808035906020019064010000000081111561024b57600080fd5b82018360208201111561025d57600080fd5b8035906020019184600183028401116401000000008311171561027f57600080fd5b9091929391929390505050610503565b005b610299610610565b005b8181600091906102ac929190610885565b505050565b60606000806000806102c161070d565b90506000600160009054906101000a900460ff1660035483838054600181600116156101000203166002900480601f01602080910402602001604051908101604052809291908181526020018280546001816001161561010002031660029004801561036e5780601f106103435761010080835404028352916020019161036e565b820191906000526020600020905b81548152906001019060200180831161035157829003601f168201915b5050505050935094509450945094505090919293565b60008190505b60016003540381101561043457600260018201815481106103a757fe5b9060005260206000200160009054906101000a900473ffffffffffffffffffffffffffffffffffffffff16600282815481106103df57fe5b9060005260206000200160006101000a81548173ffffffffffffffffffffffffffffffffffffffff021916908373ffffffffffffffffffffffffffffffffffffffff160217905550808060010191505061038a565b506003600081548092919060019003919050555050565b600060035482106104c4576040517f08c379a00000000000000000000000000000000000000000000000000000000081526004018080602001828103825260158152602001807f436865636b6c697374206d75737420657869737473000000000000000000000081525060200191505060405180910390fd5b600282815481106104d157fe5b9060005260206000200160009054906101000a900473ffffffffffffffffffffffffffffffffffffffff169050919050565b6000828260405161051390610905565b80806020018281038252848482818152602001925080828437600081840152601f19601f8201169050808301925050509350505050604051809103906000f080158015610564573d6000803e3d6000fd5b50905060028190806001815401808255809150509060018203906000526020600020016000909192909190916101000a81548173ffffffffffffffffffffffffffffffffffffffff021916908373ffffffffffffffffffffffffffffffffffffffff160217905550506003600081548092919060010191905055507f76d60b817ebeb5c8edb71dd78a40c93e4d63b8e36f13072025b6d6b757cfbefa60405160405180910390a1505050565b60008090505b6003548110156106c4576002818154811061062d57fe5b9060005260206000200160009054906101000a900473ffffffffffffffffffffffffffffffffffffffff1673ffffffffffffffffffffffffffffffffffffffff1663f8af56b76040518163ffffffff1660e01b8152600401600060405180830381600087803b15801561069f57600080fd5b505af11580156106b3573d6000803e3d6000fd5b505050508080600101915050610616565b5060018060006101000a81548160ff0219169083151502179055507f3c350d18e479f5682191b9cdb4cdfa755c912f69d2d5ab94d910df38dec36a7260405160405180910390a1565b60008060008090505b60028054905081101561087d5760006002828154811061073257fe5b9060005260206000200160009054906101000a900473ffffffffffffffffffffffffffffffffffffffff1673ffffffffffffffffffffffffffffffffffffffff1663945f6b516040518163ffffffff1660e01b815260040160006040518083038186803b1580156107a257600080fd5b505afa1580156107b6573d6000803e3d6000fd5b505050506040513d6000823e3d601f19601f8201168201806040525060808110156107e057600080fd5b8101908080516401000000008111156107f857600080fd5b8281019050602081018481111561080e57600080fd5b815185600182028301116401000000008211171561082b57600080fd5b5050929190602001805190602001909291908051906020019092919080519060200190929190505050505091505060011515811515141561086f5782806001019350505b508080600101915050610716565b508091505090565b828054600181600116156101000203166002900490600052602060002090601f016020900481019282601f106108c657803560ff19168380011785556108f4565b828001600101855582156108f4579182015b828111156108f35782358255916020019190600101906108d8565b5b5090506109019190610912565b5090565b610ff18061093883390190565b61093491905b80821115610930576000816000905550600101610918565b5090565b9056fe608060405234801561001057600080fd5b50604051610ff1380380610ff18339810180604052602081101561003357600080fd5b81019080805164010000000081111561004b57600080fd5b8281019050602081018481111561006157600080fd5b815185600182028301116401000000008211171561007e57600080fd5b5050929190505050806000908051906020019061009c9291906100be565b506000600160006101000a81548160ff02191690831515021790555050610163565b828054600181600116156101000203166002900490600052602060002090601f016020900481019282601f106100ff57805160ff191683800117855561012d565b8280016001018555821561012d579182015b8281111561012c578251825591602001919060010190610111565b5b50905061013a919061013e565b5090565b61016091905b8082111561015c576000816000905550600101610144565b5090565b90565b610e7f806101726000396000f3fe608060405234801561001057600080fd5b50600436106100885760003560e01c80637bc6ae7f1161005b5780637bc6ae7f146101cb578063945f6b51146101d5578063c5bc5bd214610271578063f8af56b7146102df57610088565b8063040c014b1461008d5780630d1f7d9414610106578063132334f81461012457806371a9faa11461019d575b600080fd5b610104600480360360208110156100a357600080fd5b81019080803590602001906401000000008111156100c057600080fd5b8201836020820111156100d257600080fd5b803590602001918460018302840111640100000000831117156100f457600080fd5b90919293919293905050506102e9565b005b61010e6102ff565b6040518082815260200191505060405180910390f35b61019b6004803603602081101561013a57600080fd5b810190808035906020019064010000000081111561015757600080fd5b82018360208201111561016957600080fd5b8035906020019184600183028401116401000000008311171561018b57600080fd5b9091929391929390505050610461565b005b6101c9600480360360208110156101b357600080fd5b8101908080359060200190929190505050610599565b005b6101d3610660565b005b6101dd61067d565b604051808060200185151515158152602001848152602001838152602001828103825286818151815260200191508051906020019080838360005b83811015610233578082015181840152602081019050610218565b50505050905090810190601f1680156102605780820380516001836020036101000a031916815260200191505b509550505050505060405180910390f35b61029d6004803603602081101561028757600080fd5b8101908080359060200190929190505050610750565b604051808273ffffffffffffffffffffffffffffffffffffffff1673ffffffffffffffffffffffffffffffffffffffff16815260200191505060405180910390f35b6102e7610808565b005b8181600091906102fa929190610905565b505050565b60008060008090505b6002805490508110156104595760006002828154811061032457fe5b9060005260206000200160009054906101000a900473ffffffffffffffffffffffffffffffffffffffff1673ffffffffffffffffffffffffffffffffffffffff1663945f6b516040518163ffffffff1660e01b815260040160006040518083038186803b15801561039457600080fd5b505afa1580156103a8573d6000803e3d6000fd5b505050506040513d6000823e3d601f19601f8201168201806040525060408110156103d257600080fd5b8101908080516401000000008111156103ea57600080fd5b8281019050602081018481111561040057600080fd5b815185600182028301116401000000008211171561041d57600080fd5b50509291906020018051906020019092919050505091505060011515811515141561044b5782806001019350505b508080600101915050610308565b508091505090565b6002828260405161047190610985565b80806020018281038252848482818152602001925080828437600081840152601f19601f8201169050808301925050509350505050604051809103906000f0801580156104c2573d6000803e3d6000fd5b5090806001815401808255809150509060018203906000526020600020016000909192909190916101000a81548173ffffffffffffffffffffffffffffffffffffffff021916908373ffffffffffffffffffffffffffffffffffffffff16021790555050600360008154809291906001019190505550600160009054906101000a900460ff1615610569576000600160006101000a81548160ff0219169083151502179055505b7f31f44556c6aa9da5a9d68dc15bf59bb27fd22bc97ad2c1235fd8a010f864a09c60405160405180910390a15050565b60008190505b60016003540381101561064957600260018201815481106105bc57fe5b9060005260206000200160009054906101000a900473ffffffffffffffffffffffffffffffffffffffff16600282815481106105f457fe5b9060005260206000200160006101000a81548173ffffffffffffffffffffffffffffffffffffffff021916908373ffffffffffffffffffffffffffffffffffffffff160217905550808060010191505061059f565b506003600081548092919060019003919050555050565b6000600160006101000a81548160ff021916908315150217905550565b606060008060008061068d6102ff565b90506000600160009054906101000a900460ff1660035483838054600181600116156101000203166002900480601f01602080910402602001604051908101604052809291908181526020018280546001816001161561010002031660029004801561073a5780601f1061070f5761010080835404028352916020019161073a565b820191906000526020600020905b81548152906001019060200180831161071d57829003601f168201915b5050505050935094509450945094505090919293565b600060035482106107c9576040517f08c379a00000000000000000000000000000000000000000000000000000000081526004018080602001828103825260108152602001807f5461736b206d757374206578697374730000000000000000000000000000000081525060200191505060405180910390fd5b600282815481106107d657fe5b9060005260206000200160009054906101000a900473ffffffffffffffffffffffffffffffffffffffff169050919050565b60008090505b6003548110156108bc576002818154811061082557fe5b9060005260206000200160009054906101000a900473ffffffffffffffffffffffffffffffffffffffff1673ffffffffffffffffffffffffffffffffffffffff1663f8af56b76040518163ffffffff1660e01b8152600401600060405180830381600087803b15801561089757600080fd5b505af11580156108ab573d6000803e3d6000fd5b50505050808060010191505061080e565b5060018060006101000a81548160ff0219169083151502179055507fbe99a2dd87c921407088a09c53637397cc455bce2c952da3d8efc389044f3f3e60405160405180910390a1565b828054600181600116156101000203166002900490600052602060002090601f016020900481019282601f1061094657803560ff1916838001178555610974565b82800160010185558215610974579182015b82811115610973578235825591602001919060010190610958565b5b5090506109819190610992565b5090565b61049c806109b883390190565b6109b491905b808211156109b0576000816000905550600101610998565b5090565b9056fe608060405234801561001057600080fd5b5060405161049c38038061049c8339810180604052602081101561003357600080fd5b81019080805164010000000081111561004b57600080fd5b8281019050602081018481111561006157600080fd5b815185600182028301116401000000008211171561007e57600080fd5b5050929190505050806000908051906020019061009c9291906100a3565b5050610148565b828054600181600116156101000203166002900490600052602060002090601f016020900481019282601f106100e457805160ff1916838001178555610112565b82800160010185558215610112579182015b828111156101115782518255916020019190600101906100f6565b5b50905061011f9190610123565b5090565b61014591905b80821115610141576000816000905550600101610129565b5090565b90565b610345806101576000396000f3fe608060405234801561001057600080fd5b506004361061004c5760003560e01c8063040c014b146100515780637bc6ae7f146100ca578063945f6b51146100d4578063f8af56b714610162575b600080fd5b6100c86004803603602081101561006757600080fd5b810190808035906020019064010000000081111561008457600080fd5b82018360208201111561009657600080fd5b803590602001918460018302840111640100000000831117156100b857600080fd5b909192939192939050505061016c565b005b6100d2610182565b005b6100dc61019f565b604051808060200183151515158152602001828103825284818151815260200191508051906020019080838360005b8381101561012657808201518184015260208101905061010b565b50505050905090810190601f1680156101535780820380516001836020036101000a031916815260200191505b50935050505060405180910390f35b61016a610258565b005b81816000919061017d929190610274565b505050565b6000600160006101000a81548160ff021916908315150217905550565b6060600080600160009054906101000a900460ff16818054600181600116156101000203166002900480601f0160208091040260200160405190810160405280929190818152602001828054600181600116156101000203166002900480156102495780601f1061021e57610100808354040283529160200191610249565b820191906000526020600020905b81548152906001019060200180831161022c57829003601f168201915b50505050509150915091509091565b60018060006101000a81548160ff021916908315150217905550565b828054600181600116156101000203166002900490600052602060002090601f016020900481019282601f106102b557803560ff19168380011785556102e3565b828001600101855582156102e3579182015b828111156102e25782358255916020019190600101906102c7565b5b5090506102f091906102f4565b5090565b61031691905b808211156103125760008160009055506001016102fa565b5090565b9056fea165627a7a72305820600eaa875c3770f31c68764141f029d9412638ae5e976e588cfb50a139cf382a0029a165627a7a723058204cb404bff34c137c2123ea8bedb53e43a69f0b8583448107b443ecc192222e750029a165627a7a7230582008f762164a48df40767f40689966d3fb2235fda44d7d13f090887f0a74c44ef20029",
  "source": "pragma solidity ^0.5.8;\r\nimport \"./CheckList.sol\";\r\nimport \"./Task.sol\";\r\n\r\ncontract Job {\r\n\r\n  string name;\r\n  bool finish;\r\n  CheckList[] checkLists;\r\n  uint checkListsCount;\r\n\r\n  event NewCheckList();\r\n  event JobDone();\r\n\r\n  constructor(string memory _name) public {\r\n    name = _name;\r\n    finish = false;}\r\n\r\n  function _changeName(string calldata _name) external {\r\n    name = _name;}\r\n\r\n  function _finish() external {\r\n    for(uint i = 0; i < checkListsCount; i++) checkLists[i]._finish();\r\n    finish = true;\r\n    emit JobDone();}\r\n\r\n  function _countFinishedCheckList() internal view returns (uint) {\r\n    uint result;\r\n    for(uint i = 0; i < checkLists.length;i++) {\r\n      (,bool finished,,) = checkLists[i]._getInfo();\r\n        if(finished == true) result++;\r\n    }\r\n    return result;}\r\n\r\n  function _getInfo() public view returns (string memory, bool, uint, uint) {\r\n    uint progress = _countFinishedCheckList();\r\n    return (name, finish, checkListsCount, progress);}\r\n\r\n  function _addCheckList(string calldata _name) external {\r\n    CheckList sample = new CheckList(_name);\r\n        checkLists.push(sample);\r\n        checkListsCount++;\r\n        emit NewCheckList();}\r\n\r\n  function _deleteCheckList(uint _checkListId) external {\r\n    for (uint i = _checkListId; i < checkListsCount-1; i++) {\r\n      checkLists[i] = checkLists[i+1];\r\n    }\r\n    checkListsCount--;}\r\n\r\n  function _getCheckList(uint _checkListId) public view returns (CheckList) {\r\n    require(_checkListId < checkListsCount, \"Checklist must exists\");\r\n    return checkLists[_checkListId];}\r\n}",
  "sourcePath": "C:\\Users\\thovi\\Documents\\High_tech\\Blockchain\\React\\check_list\\contracts\\Job.sol",
  "compiler": {
    "name": "solc",
    "version": "0.5.8+commit.23d335f2.Emscripten.clang"
  },
  "schemaVersion": "3.0.11",
  "updatedAt": "2019-08-07T06:21:18.985Z",
  "devdoc": {
    "methods": {}
  },
  "userdoc": {
    "methods": {}
  }
}