{
  "contractName": "Task",
  "abi": [
    {
      "inputs": [
        {
          "name": "_name",
          "type": "string"
        }
      ],
      "payable": false,
      "stateMutability": "nonpayable",
      "type": "constructor"
    },
    {
      "constant": false,
      "inputs": [
        {
          "name": "_name",
          "type": "string"
        }
      ],
      "name": "_changeName",
      "outputs": [],
      "payable": false,
      "stateMutability": "nonpayable",
      "type": "function"
    },
    {
      "constant": false,
      "inputs": [],
      "name": "_unfinish",
      "outputs": [],
      "payable": false,
      "stateMutability": "nonpayable",
      "type": "function"
    },
    {
      "constant": false,
      "inputs": [],
      "name": "_finish",
      "outputs": [],
      "payable": false,
      "stateMutability": "nonpayable",
      "type": "function"
    },
    {
      "constant": true,
      "inputs": [],
      "name": "_getInfo",
      "outputs": [
        {
          "name": "",
          "type": "string"
        },
        {
          "name": "",
          "type": "bool"
        }
      ],
      "payable": false,
      "stateMutability": "view",
      "type": "function"
    }
  ],
  "bytecode": "0x608060405234801561001057600080fd5b5060405161049c38038061049c8339810180604052602081101561003357600080fd5b81019080805164010000000081111561004b57600080fd5b8281019050602081018481111561006157600080fd5b815185600182028301116401000000008211171561007e57600080fd5b5050929190505050806000908051906020019061009c9291906100a3565b5050610148565b828054600181600116156101000203166002900490600052602060002090601f016020900481019282601f106100e457805160ff1916838001178555610112565b82800160010185558215610112579182015b828111156101115782518255916020019190600101906100f6565b5b50905061011f9190610123565b5090565b61014591905b80821115610141576000816000905550600101610129565b5090565b90565b610345806101576000396000f3fe608060405234801561001057600080fd5b506004361061004c5760003560e01c8063040c014b146100515780637bc6ae7f146100ca578063945f6b51146100d4578063f8af56b714610162575b600080fd5b6100c86004803603602081101561006757600080fd5b810190808035906020019064010000000081111561008457600080fd5b82018360208201111561009657600080fd5b803590602001918460018302840111640100000000831117156100b857600080fd5b909192939192939050505061016c565b005b6100d2610182565b005b6100dc61019f565b604051808060200183151515158152602001828103825284818151815260200191508051906020019080838360005b8381101561012657808201518184015260208101905061010b565b50505050905090810190601f1680156101535780820380516001836020036101000a031916815260200191505b50935050505060405180910390f35b61016a610258565b005b81816000919061017d929190610274565b505050565b6000600160006101000a81548160ff021916908315150217905550565b6060600080600160009054906101000a900460ff16818054600181600116156101000203166002900480601f0160208091040260200160405190810160405280929190818152602001828054600181600116156101000203166002900480156102495780601f1061021e57610100808354040283529160200191610249565b820191906000526020600020905b81548152906001019060200180831161022c57829003601f168201915b50505050509150915091509091565b60018060006101000a81548160ff021916908315150217905550565b828054600181600116156101000203166002900490600052602060002090601f016020900481019282601f106102b557803560ff19168380011785556102e3565b828001600101855582156102e3579182015b828111156102e25782358255916020019190600101906102c7565b5b5090506102f091906102f4565b5090565b61031691905b808211156103125760008160009055506001016102fa565b5090565b9056fea165627a7a72305820600eaa875c3770f31c68764141f029d9412638ae5e976e588cfb50a139cf382a0029",
  "source": "pragma solidity ^0.5.8;\r\n\r\ncontract Task {\r\n  string name;\r\n  bool finish;\r\n\r\n  constructor (string memory _name) public {\r\n    name = _name;}\r\n\r\n  function _changeName(string calldata _name) external {\r\n    name = _name;}\r\n\r\n  function _unfinish() external {\r\n    finish = false;}\r\n\r\n  function _finish() external {\r\n    finish = true;}\r\n\r\n  function _getInfo() external view returns (string memory, bool) {\r\n    return (name, finish);}\r\n}",
  "sourcePath": "C:\\Users\\thovi\\Documents\\High_tech\\Blockchain\\React\\check_list\\contracts\\Task.sol",
  "compiler": {
    "name": "solc",
    "version": "0.5.8+commit.23d335f2.Emscripten.clang"
  },
  "schemaVersion": "3.0.11",
  "updatedAt": "2019-08-07T06:21:18.976Z",
  "devdoc": {
    "methods": {}
  },
  "userdoc": {
    "methods": {}
  }
}